{
  "transactions": [
    {
      "hash": "0xf17e3f63ed021a0798bec8409417bbf948af256e20db3f3121a90e2d90db2687",
      "transactionType": "CALL",
      "contractName": null,
      "contractAddress": "0x779877a7b0d9e8603169ddbd7836e478b4624789",
      "function": "transferAndCall(address,uint256,bytes)",
      "arguments": [
        "0x9DdfaCa8183c41ad55329BdeeD9F6A8d53168B1B",
        "3000000000000000",
        "0xb2f2ef458078df20b064d1b21442d3afd838abaa3f75dd90afae4b394a8068b7"
      ],
      "transaction": {
        "from": "0x6011830063913b475bcb0da5cdb174304a13e744",
        "to": "0x779877a7b0d9e8603169ddbd7836e478b4624789",
        "gas": "0x14cbb",
        "value": "0x0",
        "input": "0x4000aea00000000000000000000000009ddfaca8183c41ad55329bdeed9f6a8d53168b1b000000000000000000000000000000000000000000000000000aa87bee53800000000000000000000000000000000000000000000000000000000000000000600000000000000000000000000000000000000000000000000000000000000020b2f2ef458078df20b064d1b21442d3afd838abaa3f75dd90afae4b394a8068b7",
        "nonce": "0xe",
        "chainId": "0xaa36a7"
      },
      "additionalContracts": [],
      "isFixedGasLimit": false
    }
  ],
  "receipts": [
    {
      "status": "0x1",
      "cumulativeGasUsed": "0x1967f1f",
      "logs": [
        {
          "address": "0x779877a7b0d9e8603169ddbd7836e478b4624789",
          "topics": [
            "0xddf252ad1be2c89b69c2b068fc378daa952ba7f163c4a11628f55a4df523b3ef",
            "0x0000000000000000000000006011830063913b475bcb0da5cdb174304a13e744",
            "0x0000000000000000000000009ddfaca8183c41ad55329bdeed9f6a8d53168b1b"
          ],
          "data": "0x000000000000000000000000000000000000000000000000000aa87bee538000",
          "blockHash": "0x7e6b17993fda19f555d2a051849c58a7e72b19796b2122ffc2d979f9386e619d",
          "blockNumber": "0xa87d60",
          "blockTimestamp": "0x6a2ba480",
          "transactionHash": "0xf17e3f63ed021a0798bec8409417bbf948af256e20db3f3121a90e2d90db2687",
          "transactionIndex": "0x124",
          "logIndex": "0x3d9",
          "removed": false
        },
        {
          "address": "0x779877a7b0d9e8603169ddbd7836e478b4624789",
          "topics": [
            "0xe19260aff97b920c7df27010903aeb9c8d2be5d310a2c67824cf3f15396e4c16",
            "0x0000000000000000000000006011830063913b475bcb0da5cdb174304a13e744",
            "0x0000000000000000000000009ddfaca8183c41ad55329bdeed9f6a8d53168b1b"
          ],
          "data": "0x000000000000000000000000000000000000000000000000000aa87bee53800000000000000000000000000000000000000000000000000000000000000000400000000000000000000000000000000000000000000000000000000000000020b2f2ef458078df20b064d1b21442d3afd838abaa3f75dd90afae4b394a8068b7",
          "blockHash": "0x7e6b17993fda19f555d2a051849c58a7e72b19796b2122ffc2d979f9386e619d",
          "blockNumber": "0xa87d60",
          "blockTimestamp": "0x6a2ba480",
          "transactionHash": "0xf17e3f63ed021a0798bec8409417bbf948af256e20db3f3121a90e2d90db2687",
          "transactionIndex": "0x124",
          "logIndex": "0x3da",
          "removed": false
        },
        {
          "address": "0x9ddfaca8183c41ad55329bdeed9f6a8d53168b1b",
          "topics": [
            "0x1ced9348ff549fceab2ac57cd3a9de38edaaab274b725ee82c23e8fc8c4eec7a",
            "0xb2f2ef458078df20b064d1b21442d3afd838abaa3f75dd90afae4b394a8068b7"
          ],
          "data": "0x0000000000000000000000000000000000000000000000000000000000000000000000000000000000000000000000000000000000000000000aa87bee538000",
          "blockHash": "0x7e6b17993fda19f555d2a051849c58a7e72b19796b2122ffc2d979f9386e619d",
          "blockNumber": "0xa87d60",
          "blockTimestamp": "0x6a2ba480",
          "transactionHash": "0xf17e3f63ed021a0798bec8409417bbf948af256e20db3f3121a90e2d90db2687",
          "transactionIndex": "0x124",
          "logIndex": "0x3db",
          "removed": false
        }
      ],
      "logsBloom": "0x00000004000000004000000000000000000000000020000000000000020000000000000000000000000000000000000000000000000000000000000000000000000000000000000000000008000000000000000000000000000020000020000008000000000000000000000000000000000000000000000000000010000040000000000000000000000000010000800000000020000000000000000000000000000000000000000000000000010000000000010000000000000004000000010000000002000000000000000000000000000000000000000100000000000000000010000000000000800000000000000000000000080000000010400000000000",
      "type": "0x2",
      "transactionHash": "0xf17e3f63ed021a0798bec8409417bbf948af256e20db3f3121a90e2d90db2687",
      "transactionIndex": "0x124",
      "blockHash": "0x7e6b17993fda19f555d2a051849c58a7e72b19796b2122ffc2d979f9386e619d",
      "blockNumber": "0xa87d60",
      "gasUsed": "0xf0e5",
      "effectiveGasPrice": "0x3ff2b7ba2",
      "from": "0x6011830063913b475bcb0da5cdb174304a13e744",
      "to": "0x779877a7b0d9e8603169ddbd7836e478b4624789",
      "contractAddress": null
    }
  ],
  "libraries": [],
  "pending": [],
  "returns": {},
  "timestamp": 1781245058049,
  "chain": 11155111,
  "commit": "10c44de"
}